:020000020000FC
:040000000C944A0012
:040034000C946900BF
:100054000C946200AA1BBB1B51E107C0AA1FBB1F63
:10006400A617B70710F0A61BB70B881F991F5A9540
:10007400A9F7809590950895991B79E004C0991F7C
:10008400961708F0961B881F7A95C9F780950895EE
:1000940008E00EBF0FEF0DBF00E204B90E94860016
:1000A4000E94960000E400937C0006EC00937A0022
:1000B40000E000937B0001E000937E007894FFCF82
:1000C4001F931FB71F931F911FBF1F9118951F9355
:1000D4001FB71F9310917A00106410937A00109147
:1000E4007A0016FDFCCF80917800909179000E94EF
:1000F400A9001D9A0BE0009385000CED0093840089
:100104001F911FBF1F91189500E00093C00008E0E5
:100114000093C10006E00093C20007E60093C40008
:1001240000E00093C500089500E00093800004E01F
:100134000093810000E00093820001E000936F00CF
:100144000BE0009385000CED00938400089573E0A8
:1001540068EE0E942C00482F0E94CA00CD0170E076
:1001640064E60E942C00482F0E94CA00CD0170E072
:100174006AE00E942C00482F0E94CA004A2F0E9465
:10018400CA004AE00E94CC004DE00E94CC000895D1
:1001940000E3400F0091C00005FFFCCF4093C60070
:0201A4000895BC
:00000001FF
